{
    "abi": [
        {
            "type": "constructor",
            "inputs": [
                {
                    "name": "name_",
                    "type": "string",
                    "internalType": "string"
                },
                {
                    "name": "symbol_",
                    "type": "string",
                    "internalType": "string"
                },
                {
                    "name": "baseURI_",
                    "type": "string",
                    "internalType": "string"
                }
            ],
            "stateMutability": "nonpayable"
        },
        {
            "type": "function",
            "name": "acceptInvoice",
            "inputs": [
                {
                    "name": "tokenId",
                    "type": "uint256",
                    "internalType": "uint256"
                }
            ],
            "outputs": [],
            "stateMutability": "nonpayable"
        },
        {
            "type": "function",
            "name": "addCurrency",
            "inputs": [
                {
                    "name": "currency",
                    "type": "string",
                    "internalType": "string"
                }
            ],
            "outputs": [],
            "stateMutability": "nonpayable"
        },
        {
            "type": "function",
            "name": "approve",
            "inputs": [
                {
                    "name": "to",
                    "type": "address",
                    "internalType": "address"
                },
                {
                    "name": "tokenId",
                    "type": "uint256",
                    "internalType": "uint256"
                }
            ],
            "outputs": [],
            "stateMutability": "nonpayable"
        },
        {
            "type": "function",
            "name": "balanceOf",
            "inputs": [
                {
                    "name": "owner",
                    "type": "address",
                    "internalType": "address"
                }
            ],
            "outputs": [
                {
                    "name": "",
                    "type": "uint256",
                    "internalType": "uint256"
                }
            ],
            "stateMutability": "view"
        },
        {
            "type": "function",
            "name": "cancelInvoice",
            "inputs": [
                {
                    "name": "tokenId",
                    "type": "uint256",
                    "internalType": "uint256"
                }
            ],
            "outputs": [],
            "stateMutability": "nonpayable"
        },
        {
            "type": "function",
            "name": "createInvoice",
            "inputs": [
                {
                    "name": "payer",
                    "type": "address",
                    "internalType": "address"
                },
                {
                    "name": "currency",
                    "type": "string",
                    "internalType": "string"
                },
                {
                    "name": "dueDays",
                    "type": "uint48",
                    "internalType": "uint48"
                },
                {
                    "name": "items",
                    "type": "tuple[]",
                    "internalType": "struct IInvoiceNFT.LineItem[]",
                    "components": [
                        {
                            "name": "description",
                            "type": "string",
                            "internalType": "string"
                        },
                        {
                            "name": "quantity",
                            "type": "uint256",
                            "internalType": "uint256"
                        },
                        {
                            "name": "unitPrice",
                            "type": "uint256",
                            "internalType": "uint256"
                        }
                    ]
                }
            ],
            "outputs": [
                {
                    "name": "tokenId",
                    "type": "uint256",
                    "internalType": "uint256"
                }
            ],
            "stateMutability": "nonpayable"
        },
        {
            "type": "function",
            "name": "disputeInvoice",
            "inputs": [
                {
                    "name": "tokenId",
                    "type": "uint256",
                    "internalType": "uint256"
                }
            ],
            "outputs": [],
            "stateMutability": "nonpayable"
        },
        {
            "type": "function",
            "name": "getApproved",
            "inputs": [
                {
                    "name": "tokenId",
                    "type": "uint256",
                    "internalType": "uint256"
                }
            ],
            "outputs": [
                {
                    "name": "",
                    "type": "address",
                    "internalType": "address"
                }
            ],
            "stateMutability": "view"
        },
        {
            "type": "function",
            "name": "getInvoice",
            "inputs": [
                {
                    "name": "tokenId",
                    "type": "uint256",
                    "internalType": "uint256"
                }
            ],
            "outputs": [
                {
                    "name": "",
                    "type": "tuple",
                    "internalType": "struct IInvoiceNFT.Invoice",
                    "components": [
                        {
                            "name": "issuer",
                            "type": "address",
                            "internalType": "address"
                        },
                        {
                            "name": "payer",
                            "type": "address",
                            "internalType": "address"
                        },
                        {
                            "name": "amount",
                            "type": "uint256",
                            "internalType": "uint256"
                        },
                        {
                            "name": "dueDate",
                            "type": "uint48",
                            "internalType": "uint48"
                        },
                        {
                            "name": "createdAt",
                            "type": "uint48",
                            "internalType": "uint48"
                        },
                        {
                            "name": "status",
                            "type": "uint8",
                            "internalType": "enum IInvoiceNFT.InvoiceStatus"
                        },
                        {
                            "name": "currency",
                            "type": "string",
                            "internalType": "string"
                        },
                        {
                            "name": "items",
                            "type": "tuple[]",
                            "internalType": "struct IInvoiceNFT.LineItem[]",
                            "components": [
                                {
                                    "name": "description",
                                    "type": "string",
                                    "internalType": "string"
                                },
                                {
                                    "name": "quantity",
                                    "type": "uint256",
                                    "internalType": "uint256"
                                },
                                {
                                    "name": "unitPrice",
                                    "type": "uint256",
                                    "internalType": "uint256"
                                }
                            ]
                        }
                    ]
                }
            ],
            "stateMutability": "view"
        },
        {
            "type": "function",
            "name": "getStatus",
            "inputs": [
                {
                    "name": "tokenId",
                    "type": "uint256",
                    "internalType": "uint256"
                }
            ],
            "outputs": [
                {
                    "name": "",
                    "type": "uint8",
                    "internalType": "enum IInvoiceNFT.InvoiceStatus"
                }
            ],
            "stateMutability": "view"
        },
        {
            "type": "function",
            "name": "getSupportedCurrencies",
            "inputs": [],
            "outputs": [
                {
                    "name": "",
                    "type": "string[]",
                    "internalType": "string[]"
                }
            ],
            "stateMutability": "view"
        },
        {
            "type": "function",
            "name": "isApprovedForAll",
            "inputs": [
                {
                    "name": "owner",
                    "type": "address",
                    "internalType": "address"
                },
                {
                    "name": "operator",
                    "type": "address",
                    "internalType": "address"
                }
            ],
            "outputs": [
                {
                    "name": "",
                    "type": "bool",
                    "internalType": "bool"
                }
            ],
            "stateMutability": "view"
        },
        {
            "type": "function",
            "name": "isCurrencySupported",
            "inputs": [
                {
                    "name": "currency",
                    "type": "string",
                    "internalType": "string"
                }
            ],
            "outputs": [
                {
                    "name": "",
                    "type": "bool",
                    "internalType": "bool"
                }
            ],
            "stateMutability": "view"
        },
        {
            "type": "function",
            "name": "isPaid",
            "inputs": [
                {
                    "name": "tokenId",
                    "type": "uint256",
                    "internalType": "uint256"
                }
            ],
            "outputs": [
                {
                    "name": "",
                    "type": "bool",
                    "internalType": "bool"
                }
            ],
            "stateMutability": "view"
        },
        {
            "type": "function",
            "name": "name",
            "inputs": [],
            "outputs": [
                {
                    "name": "",
                    "type": "string",
                    "internalType": "string"
                }
            ],
            "stateMutability": "view"
        },
        {
            "type": "function",
            "name": "owner",
            "inputs": [],
            "outputs": [
                {
                    "name": "",
                    "type": "address",
                    "internalType": "address"
                }
            ],
            "stateMutability": "view"
        },
        {
            "type": "function",
            "name": "ownerOf",
            "inputs": [
                {
                    "name": "tokenId",
                    "type": "uint256",
                    "internalType": "uint256"
                }
            ],
            "outputs": [
                {
                    "name": "",
                    "type": "address",
                    "internalType": "address"
                }
            ],
            "stateMutability": "view"
        },
        {
            "type": "function",
            "name": "pause",
            "inputs": [],
            "outputs": [],
            "stateMutability": "nonpayable"
        },
        {
            "type": "function",
            "name": "paused",
            "inputs": [],
            "outputs": [
                {
                    "name": "",
                    "type": "bool",
                    "internalType": "bool"
                }
            ],
            "stateMutability": "view"
        },
        {
            "type": "function",
            "name": "pay",
            "inputs": [
                {
                    "name": "tokenId",
                    "type": "uint256",
                    "internalType": "uint256"
                },
                {
                    "name": "token",
                    "type": "address",
                    "internalType": "address"
                }
            ],
            "outputs": [],
            "stateMutability": "nonpayable"
        },
        {
            "type": "function",
            "name": "removeCurrency",
            "inputs": [
                {
                    "name": "currency",
                    "type": "string",
                    "internalType": "string"
                }
            ],
            "outputs": [],
            "stateMutability": "nonpayable"
        },
        {
            "type": "function",
            "name": "renounceOwnership",
            "inputs": [],
            "outputs": [],
            "stateMutability": "nonpayable"
        },
        {
            "type": "function",
            "name": "safeTransferFrom",
            "inputs": [
                {
                    "name": "from",
                    "type": "address",
                    "internalType": "address"
                },
                {
                    "name": "to",
                    "type": "address",
                    "internalType": "address"
                },
                {
                    "name": "tokenId",
                    "type": "uint256",
                    "internalType": "uint256"
                }
            ],
            "outputs": [],
            "stateMutability": "nonpayable"
        },
        {
            "type": "function",
            "name": "safeTransferFrom",
            "inputs": [
                {
                    "name": "from",
                    "type": "address",
                    "internalType": "address"
                },
                {
                    "name": "to",
                    "type": "address",
                    "internalType": "address"
                },
                {
                    "name": "tokenId",
                    "type": "uint256",
                    "internalType": "uint256"
                },
                {
                    "name": "data",
                    "type": "bytes",
                    "internalType": "bytes"
                }
            ],
            "outputs": [],
            "stateMutability": "nonpayable"
        },
        {
            "type": "function",
            "name": "setApprovalForAll",
            "inputs": [
                {
                    "name": "operator",
                    "type": "address",
                    "internalType": "address"
                },
                {
                    "name": "approved",
                    "type": "bool",
                    "internalType": "bool"
                }
            ],
            "outputs": [],
            "stateMutability": "nonpayable"
        },
        {
            "type": "function",
            "name": "setBaseURI",
            "inputs": [
                {
                    "name": "baseURI_",
                    "type": "string",
                    "internalType": "string"
                }
            ],
            "outputs": [],
            "stateMutability": "nonpayable"
        },
        {
            "type": "function",
            "name": "supportsInterface",
            "inputs": [
                {
                    "name": "interfaceId",
                    "type": "bytes4",
                    "internalType": "bytes4"
                }
            ],
            "outputs": [
                {
                    "name": "",
                    "type": "bool",
                    "internalType": "bool"
                }
            ],
            "stateMutability": "view"
        },
        {
            "type": "function",
            "name": "symbol",
            "inputs": [],
            "outputs": [
                {
                    "name": "",
                    "type": "string",
                    "internalType": "string"
                }
            ],
            "stateMutability": "view"
        },
        {
            "type": "function",
            "name": "tokenURI",
            "inputs": [
                {
                    "name": "tokenId",
                    "type": "uint256",
                    "internalType": "uint256"
                }
            ],
            "outputs": [
                {
                    "name": "",
                    "type": "string",
                    "internalType": "string"
                }
            ],
            "stateMutability": "view"
        },
        {
            "type": "function",
            "name": "transferFrom",
            "inputs": [
                {
                    "name": "from",
                    "type": "address",
                    "internalType": "address"
                },
                {
                    "name": "to",
                    "type": "address",
                    "internalType": "address"
                },
                {
                    "name": "tokenId",
                    "type": "uint256",
                    "internalType": "uint256"
                }
            ],
            "outputs": [],
            "stateMutability": "nonpayable"
        },
        {
            "type": "function",
            "name": "transferOwnership",
            "inputs": [
                {
                    "name": "newOwner",
                    "type": "address",
                    "internalType": "address"
                }
            ],
            "outputs": [],
            "stateMutability": "nonpayable"
        },
        {
            "type": "function",
            "name": "unpause",
            "inputs": [],
            "outputs": [],
            "stateMutability": "nonpayable"
        },
        {
            "type": "event",
            "name": "Approval",
            "inputs": [
                {
                    "name": "owner",
                    "type": "address",
                    "indexed": true,
                    "internalType": "address"
                },
                {
                    "name": "approved",
                    "type": "address",
                    "indexed": true,
                    "internalType": "address"
                },
                {
                    "name": "tokenId",
                    "type": "uint256",
                    "indexed": true,
                    "internalType": "uint256"
                }
            ],
            "anonymous": false
        },
        {
            "type": "event",
            "name": "ApprovalForAll",
            "inputs": [
                {
                    "name": "owner",
                    "type": "address",
                    "indexed": true,
                    "internalType": "address"
                },
                {
                    "name": "operator",
                    "type": "address",
                    "indexed": true,
                    "internalType": "address"
                },
                {
                    "name": "approved",
                    "type": "bool",
                    "indexed": false,
                    "internalType": "bool"
                }
            ],
            "anonymous": false
        },
        {
            "type": "event",
            "name": "CurrencyAdded",
            "inputs": [
                {
                    "name": "currency",
                    "type": "string",
                    "indexed": false,
                    "internalType": "string"
                }
            ],
            "anonymous": false
        },
        {
            "type": "event",
            "name": "CurrencyRemoved",
            "inputs": [
                {
                    "name": "currency",
                    "type": "string",
                    "indexed": false,
                    "internalType": "string"
                }
            ],
            "anonymous": false
        },
        {
            "type": "event",
            "name": "InvoiceAccepted",
            "inputs": [
                {
                    "name": "tokenId",
                    "type": "uint256",
                    "indexed": true,
                    "internalType": "uint256"
                },
                {
                    "name": "payer",
                    "type": "address",
                    "indexed": true,
                    "internalType": "address"
                }
            ],
            "anonymous": false
        },
        {
            "type": "event",
            "name": "InvoiceCancelled",
            "inputs": [
                {
                    "name": "tokenId",
                    "type": "uint256",
                    "indexed": true,
                    "internalType": "uint256"
                },
                {
                    "name": "holder",
                    "type": "address",
                    "indexed": true,
                    "internalType": "address"
                }
            ],
            "anonymous": false
        },
        {
            "type": "event",
            "name": "InvoiceCreated",
            "inputs": [
                {
                    "name": "tokenId",
                    "type": "uint256",
                    "indexed": true,
                    "internalType": "uint256"
                },
                {
                    "name": "issuer",
                    "type": "address",
                    "indexed": true,
                    "internalType": "address"
                },
                {
                    "name": "payer",
                    "type": "address",
                    "indexed": true,
                    "internalType": "address"
                },
                {
                    "name": "amount",
                    "type": "uint256",
                    "indexed": false,
                    "internalType": "uint256"
                },
                {
                    "name": "currency",
                    "type": "string",
                    "indexed": false,
                    "internalType": "string"
                },
                {
                    "name": "dueDate",
                    "type": "uint48",
                    "indexed": false,
                    "internalType": "uint48"
                }
            ],
            "anonymous": false
        },
        {
            "type": "event",
            "name": "InvoiceDisputed",
            "inputs": [
                {
                    "name": "tokenId",
                    "type": "uint256",
                    "indexed": true,
                    "internalType": "uint256"
                },
                {
                    "name": "payer",
                    "type": "address",
                    "indexed": true,
                    "internalType": "address"
                }
            ],
            "anonymous": false
        },
        {
            "type": "event",
            "name": "InvoicePaid",
            "inputs": [
                {
                    "name": "tokenId",
                    "type": "uint256",
                    "indexed": true,
                    "internalType": "uint256"
                },
                {
                    "name": "payer",
                    "type": "address",
                    "indexed": true,
                    "internalType": "address"
                },
                {
                    "name": "token",
                    "type": "address",
                    "indexed": true,
                    "internalType": "address"
                },
                {
                    "name": "amount",
                    "type": "uint256",
                    "indexed": false,
                    "internalType": "uint256"
                }
            ],
            "anonymous": false
        },
        {
            "type": "event",
            "name": "OwnershipTransferred",
            "inputs": [
                {
                    "name": "previousOwner",
                    "type": "address",
                    "indexed": true,
                    "internalType": "address"
                },
                {
                    "name": "newOwner",
                    "type": "address",
                    "indexed": true,
                    "internalType": "address"
                }
            ],
            "anonymous": false
        },
        {
            "type": "event",
            "name": "Paused",
            "inputs": [
                {
                    "name": "account",
                    "type": "address",
                    "indexed": false,
                    "internalType": "address"
                }
            ],
            "anonymous": false
        },
        {
            "type": "event",
            "name": "Transfer",
            "inputs": [
                {
                    "name": "from",
                    "type": "address",
                    "indexed": true,
                    "internalType": "address"
                },
                {
                    "name": "to",
                    "type": "address",
                    "indexed": true,
                    "internalType": "address"
                },
                {
                    "name": "tokenId",
                    "type": "uint256",
                    "indexed": true,
                    "internalType": "uint256"
                }
            ],
            "anonymous": false
        },
        {
            "type": "event",
            "name": "Unpaused",
            "inputs": [
                {
                    "name": "account",
                    "type": "address",
                    "indexed": false,
                    "internalType": "address"
                }
            ],
            "anonymous": false
        },
        {
            "type": "error",
            "name": "ContractPaused",
            "inputs": []
        },
        {
            "type": "error",
            "name": "CurrencyAlreadySupported",
            "inputs": []
        },
        {
            "type": "error",
            "name": "CurrencyNotSupported",
            "inputs": []
        },
        {
            "type": "error",
            "name": "ERC721IncorrectOwner",
            "inputs": [
                {
                    "name": "sender",
                    "type": "address",
                    "internalType": "address"
                },
                {
                    "name": "tokenId",
                    "type": "uint256",
                    "internalType": "uint256"
                },
                {
                    "name": "owner",
                    "type": "address",
                    "internalType": "address"
                }
            ]
        },
        {
            "type": "error",
            "name": "ERC721InsufficientApproval",
            "inputs": [
                {
                    "name": "operator",
                    "type": "address",
                    "internalType": "address"
                },
                {
                    "name": "tokenId",
                    "type": "uint256",
                    "internalType": "uint256"
                }
            ]
        },
        {
            "type": "error",
            "name": "ERC721InvalidApprover",
            "inputs": [
                {
                    "name": "approver",
                    "type": "address",
                    "internalType": "address"
                }
            ]
        },
        {
            "type": "error",
            "name": "ERC721InvalidOperator",
            "inputs": [
                {
                    "name": "operator",
                    "type": "address",
                    "internalType": "address"
                }
            ]
        },
        {
            "type": "error",
            "name": "ERC721InvalidOwner",
            "inputs": [
                {
                    "name": "owner",
                    "type": "address",
                    "internalType": "address"
                }
            ]
        },
        {
            "type": "error",
            "name": "ERC721InvalidReceiver",
            "inputs": [
                {
                    "name": "receiver",
                    "type": "address",
                    "internalType": "address"
                }
            ]
        },
        {
            "type": "error",
            "name": "ERC721InvalidSender",
            "inputs": [
                {
                    "name": "sender",
                    "type": "address",
                    "internalType": "address"
                }
            ]
        },
        {
            "type": "error",
            "name": "ERC721NonexistentToken",
            "inputs": [
                {
                    "name": "tokenId",
                    "type": "uint256",
                    "internalType": "uint256"
                }
            ]
        },
        {
            "type": "error",
            "name": "EmptyLineItems",
            "inputs": []
        },
        {
            "type": "error",
            "name": "EnforcedPause",
            "inputs": []
        },
        {
            "type": "error",
            "name": "ExpectedPause",
            "inputs": []
        },
        {
            "type": "error",
            "name": "InvalidAmount",
            "inputs": []
        },
        {
            "type": "error",
            "name": "InvalidDueDate",
            "inputs": []
        },
        {
            "type": "error",
            "name": "InvalidPayer",
            "inputs": []
        },
        {
            "type": "error",
            "name": "InvalidStatus",
            "inputs": []
        },
        {
            "type": "error",
            "name": "InvoiceNotFound",
            "inputs": []
        },
        {
            "type": "error",
            "name": "NotHolder",
            "inputs": []
        },
        {
            "type": "error",
            "name": "NotPayer",
            "inputs": []
        },
        {
            "type": "error",
            "name": "OwnableInvalidOwner",
            "inputs": [
                {
                    "name": "owner",
                    "type": "address",
                    "internalType": "address"
                }
            ]
        },
        {
            "type": "error",
            "name": "OwnableUnauthorizedAccount",
            "inputs": [
                {
                    "name": "account",
                    "type": "address",
                    "internalType": "address"
                }
            ]
        },
        {
            "type": "error",
            "name": "TransferFailed",
            "inputs": []
        },
        {
            "type": "error",
            "name": "UnsupportedCurrency",
            "inputs": []
        }
    ],
    "bytecode": {
        "object": "0x60806040526001600755348015610014575f5ffd5b50604051612ea6380380612ea683398101604081905261003391610285565b3383835f6100418382610398565b50600161004e8282610398565b5050506001600160a01b03811661007e57604051631e4fbdf760e01b81525f600482015260240160405180910390fd5b61008781610197565b5060086100948282610398565b506001600a6040516100af90621554d160ea1b815260030190565b9081526040805160209281900383018120805460ff191694151594909417909355600b80546001810182555f9190915283820190915260038352621554d160ea1b918301919091525f516020612e865f395f51905f5201906101119082610398565b506001600a60405161012c906222aaa960e91b815260030190565b9081526040805160209281900383018120805460ff191694151594909417909355600b80546001810182555f91909152838201909152600383526222aaa960e91b918301919091525f516020612e865f395f51905f52019061018e9082610398565b50505050610452565b600680546001600160a01b038381166001600160a01b0319831681179093556040519116919082907f8be0079c531659141344cd1fd0a4f28419497f9722a3daafe3b4186f6b6457e0905f90a35050565b634e487b7160e01b5f52604160045260245ffd5b5f82601f83011261020b575f5ffd5b81516001600160401b03811115610224576102246101e8565b604051601f8201601f19908116603f011681016001600160401b0381118282101715610252576102526101e8565b604052818152838201602001851015610269575f5ffd5b8160208501602083015e5f918101602001919091529392505050565b5f5f5f60608486031215610297575f5ffd5b83516001600160401b038111156102ac575f5ffd5b6102b8868287016101fc565b602086015190945090506001600160401b038111156102d5575f5ffd5b6102e1868287016101fc565b604086015190935090506001600160401b038111156102fe575f5ffd5b61030a868287016101fc565b9150509250925092565b600181811c9082168061032857607f821691505b60208210810361034657634e487b7160e01b5f52602260045260245ffd5b50919050565b601f82111561039357805f5260205f20601f840160051c810160208510156103715750805b601f840160051c820191505b81811015610390575f815560010161037d565b50505b505050565b81516001600160401b038111156103b1576103b16101e8565b6103c5816103bf8454610314565b8461034c565b6020601f8211600181146103f7575f83156103e05750848201515b5f19600385901b1c1916600184901b178455610390565b5f84815260208120601f198516915b828110156104265787850151825560209485019460019092019101610406565b508482101561044357868401515f19600387901b60f8161c191681555b50505050600190811b01905550565b612a278061045f5f395ff3fe608060405234801561000f575f5ffd5b50600436106101e7575f3560e01c806370a0823111610109578063b88d4fde1161009e578063da9c273d1161006e578063da9c273d1461042b578063e985e9c51461043e578063f2fde38b14610451578063f3c3d21514610464575f5ffd5b8063b88d4fde146103df578063c6a2ec8c146103f2578063c87b56dd14610405578063cd392a8314610418575f5ffd5b80639096c29a116100d95780639096c29a1461039e57806395d89b41146103b1578063a1d0a48f146103b9578063a22cb465146103cc575f5ffd5b806370a082311461036a578063715018a61461037d5780638456cb59146103855780638da5cb5b1461038d575f5ffd5b806331cbf5e31161017f57806355f804b31161014f57806355f804b3146103125780635c622a0e146103255780635c975abb146103455780636352211e14610357575f5ffd5b806331cbf5e3146102c45780633a23cc0a146102d75780633f4ba83a146102f757806342842e0e146102ff575f5ffd5b8063111d927d116101ba578063111d927d1461026857806323b872dd1461027b5780632ca3529e1461028e5780632ce75863146102af575f5ffd5b806301ffc9a7146101eb57806306fdde0314610213578063081812fc14610228578063095ea7b314610253575b5f5ffd5b6101fe6101f9366004611ec7565b610477565b60405190151581526020015b60405180910390f35b61021b610487565b60405161020a9190611f10565b61023b610236366004611f22565b610516565b6040516001600160a01b03909116815260200161020a565b610266610261366004611f54565b61053d565b005b610266610276366004611f22565b61054c565b610266610289366004611f7c565b610643565b6102a161029c366004611ffb565b6106d1565b60405190815260200161020a565b6102b76109ac565b60405161020a91906120c8565b6102666102d236600461212b565b610a80565b6102ea6102e5366004611f22565b610bfd565b60405161020a9190612202565b610266610ea8565b61026661030d366004611f7c565b610eba565b6102666103203660046122be565b610ed9565b610338610333366004611f22565b610eee565b60405161020a91906122fd565b600654600160a01b900460ff166101fe565b61023b610365366004611f22565b610f3f565b6102a161037836600461230b565b610f49565b610266610f8e565b610266610f9f565b6006546001600160a01b031661023b565b6102666103ac3660046122be565b610faf565b61021b61114c565b6102666103c73660046122be565b61115b565b6102666103da366004612331565b611248565b6102666103ed36600461237a565b611253565b6101fe6104003660046122be565b61126b565b61021b610413366004611f22565b611299565b6101fe610426366004611f22565b6112fe565b610266610439366004611f22565b611365565b6101fe61044c366004612457565b611469565b61026661045f36600461230b565b611496565b610266610472366004611f22565b6114d3565b5f610481826115ca565b92915050565b60605f80546104959061247f565b80601f01602080910402602001604051908101604052809291908181526020018280546104c19061247f565b801561050c5780601f106104e35761010080835404028352916020019161050c565b820191905f5260205f20905b8154815290600101906020018083116104ef57829003601f168201915b5050505050905090565b5f61052082611619565b505f828152600460205260409020546001600160a01b0316610481565b610548828233611650565b5050565b61055461165d565b5f8181526009602052604081209061056b83611688565b6001600160a01b03160361059257604051634d5c803960e11b815260040160405180910390fd5b60018101546001600160a01b031633146105bf57604051631435e35760e01b815260040160405180910390fd5b5f6003820154600160601b900460ff1660048111156105e0576105e0612155565b146105fe576040516307a92f1960e51b815260040160405180910390fd5b60038101805460ff60601b1916600160611b179055604051339083907ffb978287a60d387f96d75c2dd68a5a27f63ced19594c21d40d56224c525f6d8d905f90a35050565b6001600160a01b03821661067157604051633250574960e11b81525f60048201526024015b60405180910390fd5b5f61067d8383336116a2565b9050836001600160a01b0316816001600160a01b0316146106cb576040516364283d7b60e01b81526001600160a01b0380861660048301526024820184905282166044820152606401610668565b50505050565b5f6106da61165d565b6001600160a01b03871661070157604051638eb5b89160e01b815260040160405180910390fd5b5f8290036107225760405163fc72307f60e01b815260040160405180910390fd5b600a86866040516107349291906124b7565b9081526040519081900360200190205460ff1661076457604051631131fa7160e11b815260040160405180910390fd5b8365ffffffffffff165f0361078c5760405163a1ff8dcd60e01b815260040160405180910390fd5b5f805b83811015610805578484828181106107a9576107a96124c6565b90506020028101906107bb91906124da565b604001358585838181106107d1576107d16124c6565b90506020028101906107e391906124da565b602001356107f1919061250c565b6107fb9083612523565b915060010161078f565b50805f036108265760405163162908e360e11b815260040160405180910390fd5b60078054905f61083583612536565b9091555091505f610849866201518061254e565b61085b9065ffffffffffff1642612523565b5f84815260096020526040902080546001600160a01b0319908116331782556001820180546001600160a01b038e169216919091179055600281018490556003810180544265ffffffffffff9081166601000000000000026bffffffffffffffffffffffff19909216908516171760ff60601b19169055909150600481016108e4898b836125ce565b505f5b858110156109425781600501878783818110610905576109056124c6565b905060200281019061091791906124da565b81546001810183555f92835260209092209091600302016109388282612683565b50506001016108e7565b5061094d338561178f565b896001600160a01b0316336001600160a01b0316857fca6e4ba8fcb6e905f1ecca3cb83ee78493e7a9ef1fb08d7c3f996fde71d46f0b868d8d8860405161099794939291906127a7565b60405180910390a45050509695505050505050565b6060600b805480602002602001604051908101604052809291908181526020015f905b82821015610a77578382905f5260205f200180546109ec9061247f565b80601f0160208091040260200160405190810160405280929190818152602001828054610a189061247f565b8015610a635780601f10610a3a57610100808354040283529160200191610a63565b820191905f5260205f20905b815481529060010190602001808311610a4657829003601f168201915b5050505050815260200190600101906109cf565b50505050905090565b610a8861165d565b5f82815260096020526040812090610a9f84611688565b6001600160a01b031603610ac657604051634d5c803960e11b815260040160405180910390fd5b60016003820154600160601b900460ff166004811115610ae857610ae8612155565b14610b06576040516307a92f1960e51b815260040160405180910390fd5b5f610b1084610f3f565b6002830154600384018054600160621b60ff60601b199091161790556040516323b872dd60e01b81523360048201526001600160a01b0380841660248301526044820183905292935090918516906323b872dd906064016020604051808303815f875af1158015610b83573d5f5f3e3d5ffd5b505050506040513d601f19601f82011682018060405250810190610ba791906127d9565b50836001600160a01b0316336001600160a01b0316867f4894261bc8821cd0e09696d6fa3e110c4034efc8f207633c1e1d16b7ea07fe7b84604051610bee91815260200190565b60405180910390a45050505050565b610c4460408051610100810182525f8082526020820181905291810182905260608101829052608081018290529060a0820190815260200160608152602001606081525090565b5f610c4e83611688565b6001600160a01b031603610c7557604051634d5c803960e11b815260040160405180910390fd5b5f8281526009602090815260409182902082516101008101845281546001600160a01b03908116825260018301541692810192909252600281015492820192909252600382015465ffffffffffff80821660608401526601000000000000820416608083015290919060a0830190600160601b900460ff166004811115610cfe57610cfe612155565b6004811115610d0f57610d0f612155565b8152602001600482018054610d239061247f565b80601f0160208091040260200160405190810160405280929190818152602001828054610d4f9061247f565b8015610d9a5780601f10610d7157610100808354040283529160200191610d9a565b820191905f5260205f20905b815481529060010190602001808311610d7d57829003601f168201915b5050505050815260200160058201805480602002602001604051908101604052809291908181526020015f905b82821015610e9a578382905f5260205f2090600302016040518060600160405290815f82018054610df79061247f565b80601f0160208091040260200160405190810160405280929190818152602001828054610e239061247f565b8015610e6e5780601f10610e4557610100808354040283529160200191610e6e565b820191905f5260205f20905b815481529060010190602001808311610e5157829003601f168201915b505050505081526020016001820154815260200160028201548152505081526020019060010190610dc7565b505050915250909392505050565b610eb06117a8565b610eb86117d5565b565b610ed483838360405180602001604052805f815250611253565b505050565b610ee16117a8565b6008610ed48284836125ce565b5f80610ef983611688565b6001600160a01b031603610f2057604051634d5c803960e11b815260040160405180910390fd5b505f90815260096020526040902060030154600160601b900460ff1690565b5f61048182611619565b5f6001600160a01b038216610f73576040516322718ad960e21b81525f6004820152602401610668565b506001600160a01b03165f9081526003602052604090205490565b610f966117a8565b610eb85f61182a565b610fa76117a8565b610eb861187b565b610fb76117a8565b600a8282604051610fc99291906124b7565b9081526040519081900360200190205460ff16610ff9576040516301537ee960e11b815260040160405180910390fd5b5f600a838360405161100c9291906124b7565b908152604051908190036020019020805491151560ff199092169190911790555f5b600b5481101561110e5782826040516110489291906124b7565b6040518091039020600b8281548110611063576110636124c6565b905f5260205f200160405161107891906127f4565b60405180910390200361110657600b805461109590600190612865565b815481106110a5576110a56124c6565b905f5260205f2001600b82815481106110c0576110c06124c6565b905f5260205f200190816110d49190612878565b50600b8054806110e6576110e6612948565b600190038181905f5260205f20015f6110ff9190611e68565b905561110e565b60010161102e565b507fc5ed1e922af12e320173a071785b56794ca3b589c011b0d6845397e89a7a99f1828260405161114092919061295c565b60405180910390a15050565b6060600180546104959061247f565b6111636117a8565b600a82826040516111759291906124b7565b9081526040519081900360200190205460ff16156111a657604051633d0a987d60e11b815260040160405180910390fd5b6001600a83836040516111ba9291906124b7565b908152604051908190036020019020805491151560ff19909216919091179055600b80546001810182555f919091527f0175b7a638427703f0dbe7bb9bbf987a2551717b34e79f33b5b1008d1fa01db9016112168284836125ce565b507fb20aba3422828822fe4b1dcfae6a3af94086980e82071357ebf4f8a8ac6cc784828260405161114092919061295c565b6105483383836118be565b61125e848484610643565b6106cb338585858561195c565b5f600a838360405161127e9291906124b7565b9081526040519081900360200190205460ff16905092915050565b60606112a482611619565b505f6112ae611a84565b90505f8151116112cc5760405180602001604052805f8152506112f7565b806112d684611a93565b6040516020016112e7929190612986565b6040516020818303038152906040525b9392505050565b5f8061130983611688565b6001600160a01b03160361133057604051634d5c803960e11b815260040160405180910390fd5b60045f83815260096020526040902060030154600160601b900460ff16600481111561135e5761135e612155565b1492915050565b61136d61165d565b5f8181526009602052604081209061138483611688565b6001600160a01b0316036113ab57604051634d5c803960e11b815260040160405180910390fd5b6113b482610f3f565b6001600160a01b0316336001600160a01b0316146113e557604051633b11fda960e11b815260040160405180910390fd5b5f6003820154600160601b900460ff16600481111561140657611406612155565b14611424576040516307a92f1960e51b815260040160405180910390fd5b60038101805460ff60601b1916600360601b179055604051339083907f1893bd55c53ca5d28463267b3794ea27b1c3fc3b0cc5f86e0c5b613ad4156f08905f90a35050565b6001600160a01b039182165f90815260056020908152604080832093909416825291909152205460ff1690565b61149e6117a8565b6001600160a01b0381166114c757604051631e4fbdf760e01b81525f6004820152602401610668565b6114d08161182a565b50565b6114db61165d565b5f818152600960205260408120906114f283611688565b6001600160a01b03160361151957604051634d5c803960e11b815260040160405180910390fd5b60018101546001600160a01b0316331461154657604051631435e35760e01b815260040160405180910390fd5b5f6003820154600160601b900460ff16600481111561156757611567612155565b14611585576040516307a92f1960e51b815260040160405180910390fd5b60038101805460ff60601b1916600160601b179055604051339083907faf119eeeb229b8642aefc48fcb42aad9a2b49ed2bd2f5739279e8ef04395956a905f90a35050565b5f6001600160e01b031982166380ac58cd60e01b14806115fa57506001600160e01b03198216635b5e139f60e01b145b8061048157506301ffc9a760e01b6001600160e01b0319831614610481565b5f5f61162483611688565b90506001600160a01b03811661048157604051637e27328960e01b815260048101849052602401610668565b610ed48383836001611b23565b600654600160a01b900460ff1615610eb85760405163d93c066560e01b815260040160405180910390fd5b5f908152600260205260409020546001600160a01b031690565b5f5f6116ad84611688565b90506001600160a01b038316156116c9576116c9818486611c27565b6001600160a01b03811615611703576116e45f855f5f611b23565b6001600160a01b0381165f90815260036020526040902080545f190190555b6001600160a01b03851615611731576001600160a01b0385165f908152600360205260409020805460010190555b5f8481526002602052604080822080546001600160a01b0319166001600160a01b0389811691821790925591518793918516917fddf252ad1be2c89b69c2b068fc378daa952ba7f163c4a11628f55a4df523b3ef91a4949350505050565b610548828260405180602001604052805f815250611c8b565b6006546001600160a01b03163314610eb85760405163118cdaa760e01b8152336004820152602401610668565b6117dd611ca2565b6006805460ff60a01b191690557f5db9ee0a495bf2e6ff9c91a7834c1ba4fdd244a5e8aa4e537bd38aeae4b073aa335b6040516001600160a01b03909116815260200160405180910390a1565b600680546001600160a01b038381166001600160a01b0319831681179093556040519116919082907f8be0079c531659141344cd1fd0a4f28419497f9722a3daafe3b4186f6b6457e0905f90a35050565b61188361165d565b6006805460ff60a01b1916600160a01b1790557f62e78cea01bee320cd4e420270b5ea74000d11b0c9f74754ebdbfc544b05a25861180d3390565b6001600160a01b0382166118f057604051630b61174360e31b81526001600160a01b0383166004820152602401610668565b6001600160a01b038381165f81815260056020908152604080832094871680845294825291829020805460ff191686151590811790915591519182527f17307eab39ab6107e8899845ad3d59bd9653f200f220920489ca2b5937696c31910160405180910390a3505050565b6001600160a01b0383163b15611a7d57604051630a85bd0160e11b81526001600160a01b0384169063150b7a029061199e90889088908790879060040161299a565b6020604051808303815f875af19250505080156119d8575060408051601f3d908101601f191682019092526119d5918101906129d6565b60015b611a3f573d808015611a05576040519150601f19603f3d011682016040523d82523d5f602084013e611a0a565b606091505b5080515f03611a3757604051633250574960e11b81526001600160a01b0385166004820152602401610668565b805160208201fd5b6001600160e01b03198116630a85bd0160e11b14611a7b57604051633250574960e11b81526001600160a01b0385166004820152602401610668565b505b5050505050565b6060600880546104959061247f565b60605f611a9f83611ccc565b60010190505f8167ffffffffffffffff811115611abe57611abe612366565b6040519080825280601f01601f191660200182016040528015611ae8576020820181803683370190505b5090508181016020015b5f19016f181899199a1a9b1b9c1cb0b131b232b360811b600a86061a8153600a8504945084611af257509392505050565b8080611b3757506001600160a01b03821615155b15611bf8575f611b4684611619565b90506001600160a01b03831615801590611b725750826001600160a01b0316816001600160a01b031614155b8015611b855750611b838184611469565b155b15611bae5760405163a9fbf51f60e01b81526001600160a01b0384166004820152602401610668565b8115611bf65783856001600160a01b0316826001600160a01b03167f8c5be1e5ebec7d5bd14f71427d1e84f3dd0314c0f7b2291e5b200ac8c7c3b92560405160405180910390a45b505b50505f90815260046020526040902080546001600160a01b0319166001600160a01b0392909216919091179055565b611c32838383611da3565b610ed4576001600160a01b038316611c6057604051637e27328960e01b815260048101829052602401610668565b60405163177e802f60e01b81526001600160a01b038316600482015260248101829052604401610668565b611c958383611e07565b610ed4335f85858561195c565b600654600160a01b900460ff16610eb857604051638dfc202b60e01b815260040160405180910390fd5b5f8072184f03e93ff9f4daa797ed6e38ed64bf6a1f0160401b8310611d0a5772184f03e93ff9f4daa797ed6e38ed64bf6a1f0160401b830492506040015b6d04ee2d6d415b85acef81000000008310611d36576d04ee2d6d415b85acef8100000000830492506020015b662386f26fc100008310611d5457662386f26fc10000830492506010015b6305f5e1008310611d6c576305f5e100830492506008015b6127108310611d8057612710830492506004015b60648310611d92576064830492506002015b600a83106104815760010192915050565b5f6001600160a01b03831615801590611dff5750826001600160a01b0316846001600160a01b03161480611ddc5750611ddc8484611469565b80611dff57505f828152600460205260409020546001600160a01b038481169116145b949350505050565b6001600160a01b038216611e3057604051633250574960e11b81525f6004820152602401610668565b5f611e3c83835f6116a2565b90506001600160a01b03811615610ed4576040516339e3563760e11b81525f6004820152602401610668565b508054611e749061247f565b5f825580601f10611e83575050565b601f0160209004905f5260205f20908101906114d091905b80821115611eae575f8155600101611e9b565b5090565b6001600160e01b0319811681146114d0575f5ffd5b5f60208284031215611ed7575f5ffd5b81356112f781611eb2565b5f81518084528060208401602086015e5f602082860101526020601f19601f83011685010191505092915050565b602081525f6112f76020830184611ee2565b5f60208284031215611f32575f5ffd5b5035919050565b80356001600160a01b0381168114611f4f575f5ffd5b919050565b5f5f60408385031215611f65575f5ffd5b611f6e83611f39565b946020939093013593505050565b5f5f5f60608486031215611f8e575f5ffd5b611f9784611f39565b9250611fa560208501611f39565b929592945050506040919091013590565b5f5f83601f840112611fc6575f5ffd5b50813567ffffffffffffffff811115611fdd575f5ffd5b602083019150836020828501011115611ff4575f5ffd5b9250929050565b5f5f5f5f5f5f60808789031215612010575f5ffd5b61201987611f39565b9550602087013567ffffffffffffffff811115612034575f5ffd5b61204089828a01611fb6565b909650945050604087013565ffffffffffff8116811461205e575f5ffd5b9250606087013567ffffffffffffffff811115612079575f5ffd5b8701601f81018913612089575f5ffd5b803567ffffffffffffffff81111561209f575f5ffd5b8960208260051b84010111156120b3575f5ffd5b60208201935080925050509295509295509295565b5f602082016020835280845180835260408501915060408160051b8601019250602086015f5b8281101561211f57603f1987860301845261210a858351611ee2565b945060209384019391909101906001016120ee565b50929695505050505050565b5f5f6040838503121561213c575f5ffd5b8235915061214c60208401611f39565b90509250929050565b634e487b7160e01b5f52602160045260245ffd5b6005811061218557634e487b7160e01b5f52602160045260245ffd5b9052565b5f82825180855260208501945060208160051b830101602085015f5b838110156121f657601f1985840301885281518051606085526121cb6060860182611ee2565b60208381015187820152604093840151939096019290925250978301979291909101906001016121a5565b50909695505050505050565b602080825282516001600160a01b0316828201528201515f9061223060408401826001600160a01b03169052565b50604083015160608301526060830151612254608084018265ffffffffffff169052565b50608083015165ffffffffffff811660a08401525060a083015161227b60c0840182612169565b5060c083015161010060e0840152612297610120840182611ee2565b905060e0840151601f19848303016101008501526122b58282612189565b95945050505050565b5f5f602083850312156122cf575f5ffd5b823567ffffffffffffffff8111156122e5575f5ffd5b6122f185828601611fb6565b90969095509350505050565b602081016104818284612169565b5f6020828403121561231b575f5ffd5b6112f782611f39565b80151581146114d0575f5ffd5b5f5f60408385031215612342575f5ffd5b61234b83611f39565b9150602083013561235b81612324565b809150509250929050565b634e487b7160e01b5f52604160045260245ffd5b5f5f5f5f6080858703121561238d575f5ffd5b61239685611f39565b93506123a460208601611f39565b925060408501359150606085013567ffffffffffffffff8111156123c6575f5ffd5b8501601f810187136123d6575f5ffd5b803567ffffffffffffffff8111156123f0576123f0612366565b604051601f8201601f19908116603f0116810167ffffffffffffffff8111828210171561241f5761241f612366565b604052818152828201602001891015612436575f5ffd5b816020840160208301375f6020838301015280935050505092959194509250565b5f5f60408385031215612468575f5ffd5b61247183611f39565b915061214c60208401611f39565b600181811c9082168061249357607f821691505b6020821081036124b157634e487b7160e01b5f52602260045260245ffd5b50919050565b818382375f9101908152919050565b634e487b7160e01b5f52603260045260245ffd5b5f8235605e198336030181126124ee575f5ffd5b9190910192915050565b634e487b7160e01b5f52601160045260245ffd5b8082028115828204841417610481576104816124f8565b80820180821115610481576104816124f8565b5f60018201612547576125476124f8565b5060010190565b65ffffffffffff818116838216029081169081811461256f5761256f6124f8565b5092915050565b601f821115610ed457805f5260205f20601f840160051c8101602085101561259b5750805b601f840160051c820191505b81811015611a7d575f81556001016125a7565b5f19600383901b1c191660019190911b1790565b67ffffffffffffffff8311156125e6576125e6612366565b6125fa836125f4835461247f565b83612576565b5f601f841160018114612626575f85156126145750838201355b61261e86826125ba565b845550611a7d565b5f83815260208120601f198716915b828110156126555786850135825560209485019460019092019101612635565b5086821015612671575f1960f88860031b161c19848701351681555b505060018560011b0183555050505050565b8135601e19833603018112612696575f5ffd5b8201803567ffffffffffffffff811180156126af575f5ffd5b8136036020840113156126c0575f5ffd5b5f9050506126d8816126d2855461247f565b85612576565b5f601f821160018114612707575f83156126f55750838201602001355b6126ff84826125ba565b865550612763565b5f85815260208120601f198516915b8281101561273857602085880181013583559485019460019092019101612716565b5084821015612757575f1960f88660031b161c19602085880101351681555b505060018360011b0185555b5050505060208201356001820155604090910135600290910155565b81835281816020850137505f828201602090810191909152601f909101601f19169091010190565b848152606060208201525f6127c060608301858761277f565b905065ffffffffffff8316604083015295945050505050565b5f602082840312156127e9575f5ffd5b81516112f781612324565b5f5f83546128018161247f565b600182168015612818576001811461282d5761285a565b60ff198316865281151582028601935061285a565b865f5260205f205f5b8381101561285257815488820152600190910190602001612836565b505081860193505b509195945050505050565b81810381811115610481576104816124f8565b818103612883575050565b61288d825461247f565b67ffffffffffffffff8111156128a5576128a5612366565b6128b9816128b3845461247f565b84612576565b5f601f8211600181146128e5575f83156128d35750848201545b6128dd84826125ba565b855550611a7d565b5f8581526020808220868352908220601f198616925b8381101561291b57828601548255600195860195909101906020016128fb565b508583101561293857818501545f19600388901b60f8161c191681555b5050505050600190811b01905550565b634e487b7160e01b5f52603160045260245ffd5b602081525f611dff60208301848661277f565b5f81518060208401855e5f93019283525090919050565b5f611dff612994838661296f565b8461296f565b6001600160a01b03858116825284166020820152604081018390526080606082018190525f906129cc90830184611ee2565b9695505050505050565b5f602082840312156129e6575f5ffd5b81516112f781611eb256fea2646970667358221220782ce543ad76c2ab1ea29fb2cc6207eb9fe2f3e9c8dd8364fbf1c7bf0092536664736f6c634300081c00330175b7a638427703f0dbe7bb9bbf987a2551717b34e79f33b5b1008d1fa01db9",
        "linkReferences": {}
    },
    "methodIdentifiers": {
        "acceptInvoice(uint256)": "f3c3d215",
        "addCurrency(string)": "a1d0a48f",
        "approve(address,uint256)": "095ea7b3",
        "balanceOf(address)": "70a08231",
        "cancelInvoice(uint256)": "da9c273d",
        "createInvoice(address,string,uint48,(string,uint256,uint256)[])": "2ca3529e",
        "disputeInvoice(uint256)": "111d927d",
        "getApproved(uint256)": "081812fc",
        "getInvoice(uint256)": "3a23cc0a",
        "getStatus(uint256)": "5c622a0e",
        "getSupportedCurrencies()": "2ce75863",
        "isApprovedForAll(address,address)": "e985e9c5",
        "isCurrencySupported(string)": "c6a2ec8c",
        "isPaid(uint256)": "cd392a83",
        "name()": "06fdde03",
        "owner()": "8da5cb5b",
        "ownerOf(uint256)": "6352211e",
        "pause()": "8456cb59",
        "paused()": "5c975abb",
        "pay(uint256,address)": "31cbf5e3",
        "removeCurrency(string)": "9096c29a",
        "renounceOwnership()": "715018a6",
        "safeTransferFrom(address,address,uint256)": "42842e0e",
        "safeTransferFrom(address,address,uint256,bytes)": "b88d4fde",
        "setApprovalForAll(address,bool)": "a22cb465",
        "setBaseURI(string)": "55f804b3",
        "supportsInterface(bytes4)": "01ffc9a7",
        "symbol()": "95d89b41",
        "tokenURI(uint256)": "c87b56dd",
        "transferFrom(address,address,uint256)": "23b872dd",
        "transferOwnership(address)": "f2fde38b",
        "unpause()": "3f4ba83a"
    },
    "id": 38
}