{
    "abi": [
        {
            "type": "constructor",
            "inputs": [
                {
                    "name": "_invoiceNFT",
                    "type": "address",
                    "internalType": "address"
                },
                {
                    "name": "_fusd",
                    "type": "address",
                    "internalType": "address"
                }
            ],
            "stateMutability": "nonpayable"
        },
        {
            "type": "function",
            "name": "BPS_DENOMINATOR",
            "inputs": [],
            "outputs": [
                {
                    "name": "",
                    "type": "uint256",
                    "internalType": "uint256"
                }
            ],
            "stateMutability": "view"
        },
        {
            "type": "function",
            "name": "DISCOUNT_BPS",
            "inputs": [],
            "outputs": [
                {
                    "name": "",
                    "type": "uint256",
                    "internalType": "uint256"
                }
            ],
            "stateMutability": "view"
        },
        {
            "type": "function",
            "name": "fusd",
            "inputs": [],
            "outputs": [
                {
                    "name": "",
                    "type": "address",
                    "internalType": "contract ITIP20"
                }
            ],
            "stateMutability": "view"
        },
        {
            "type": "function",
            "name": "getSoldInvoices",
            "inputs": [],
            "outputs": [
                {
                    "name": "",
                    "type": "uint256[]",
                    "internalType": "uint256[]"
                }
            ],
            "stateMutability": "view"
        },
        {
            "type": "function",
            "name": "invoiceNFT",
            "inputs": [],
            "outputs": [
                {
                    "name": "",
                    "type": "address",
                    "internalType": "contract IInvoiceNFT"
                }
            ],
            "stateMutability": "view"
        },
        {
            "type": "function",
            "name": "owner",
            "inputs": [],
            "outputs": [
                {
                    "name": "",
                    "type": "address",
                    "internalType": "address"
                }
            ],
            "stateMutability": "view"
        },
        {
            "type": "function",
            "name": "renounceOwnership",
            "inputs": [],
            "outputs": [],
            "stateMutability": "nonpayable"
        },
        {
            "type": "function",
            "name": "sellInvoice",
            "inputs": [
                {
                    "name": "tokenId",
                    "type": "uint256",
                    "internalType": "uint256"
                }
            ],
            "outputs": [],
            "stateMutability": "nonpayable"
        },
        {
            "type": "function",
            "name": "soldInvoices",
            "inputs": [
                {
                    "name": "",
                    "type": "uint256",
                    "internalType": "uint256"
                }
            ],
            "outputs": [
                {
                    "name": "",
                    "type": "uint256",
                    "internalType": "uint256"
                }
            ],
            "stateMutability": "view"
        },
        {
            "type": "function",
            "name": "transferOwnership",
            "inputs": [
                {
                    "name": "newOwner",
                    "type": "address",
                    "internalType": "address"
                }
            ],
            "outputs": [],
            "stateMutability": "nonpayable"
        },
        {
            "type": "function",
            "name": "withdrawToken",
            "inputs": [
                {
                    "name": "token",
                    "type": "address",
                    "internalType": "address"
                },
                {
                    "name": "to",
                    "type": "address",
                    "internalType": "address"
                },
                {
                    "name": "amount",
                    "type": "uint256",
                    "internalType": "uint256"
                }
            ],
            "outputs": [],
            "stateMutability": "nonpayable"
        },
        {
            "type": "event",
            "name": "InvoiceFactored",
            "inputs": [
                {
                    "name": "tokenId",
                    "type": "uint256",
                    "indexed": true,
                    "internalType": "uint256"
                },
                {
                    "name": "seller",
                    "type": "address",
                    "indexed": true,
                    "internalType": "address"
                },
                {
                    "name": "invoiceAmount",
                    "type": "uint256",
                    "indexed": false,
                    "internalType": "uint256"
                },
                {
                    "name": "paidAmount",
                    "type": "uint256",
                    "indexed": false,
                    "internalType": "uint256"
                }
            ],
            "anonymous": false
        },
        {
            "type": "event",
            "name": "OwnershipTransferred",
            "inputs": [
                {
                    "name": "previousOwner",
                    "type": "address",
                    "indexed": true,
                    "internalType": "address"
                },
                {
                    "name": "newOwner",
                    "type": "address",
                    "indexed": true,
                    "internalType": "address"
                }
            ],
            "anonymous": false
        },
        {
            "type": "event",
            "name": "TokensWithdrawn",
            "inputs": [
                {
                    "name": "token",
                    "type": "address",
                    "indexed": true,
                    "internalType": "address"
                },
                {
                    "name": "to",
                    "type": "address",
                    "indexed": true,
                    "internalType": "address"
                },
                {
                    "name": "amount",
                    "type": "uint256",
                    "indexed": false,
                    "internalType": "uint256"
                }
            ],
            "anonymous": false
        },
        {
            "type": "error",
            "name": "InsufficientFUSDBalance",
            "inputs": []
        },
        {
            "type": "error",
            "name": "InvalidInvoiceStatus",
            "inputs": []
        },
        {
            "type": "error",
            "name": "OwnableInvalidOwner",
            "inputs": [
                {
                    "name": "owner",
                    "type": "address",
                    "internalType": "address"
                }
            ]
        },
        {
            "type": "error",
            "name": "OwnableUnauthorizedAccount",
            "inputs": [
                {
                    "name": "account",
                    "type": "address",
                    "internalType": "address"
                }
            ]
        }
    ],
    "bytecode": {
        "object": "0x60c060405234801561000f575f5ffd5b50604051610cee380380610cee83398101604081905261002e916100de565b338061005357604051631e4fbdf760e01b81525f600482015260240160405180910390fd5b61005c81610074565b506001600160a01b039182166080521660a05261010f565b5f80546001600160a01b038381166001600160a01b0319831681178455604051919092169283917f8be0079c531659141344cd1fd0a4f28419497f9722a3daafe3b4186f6b6457e09190a35050565b80516001600160a01b03811681146100d9575f5ffd5b919050565b5f5f604083850312156100ef575f5ffd5b6100f8836100c3565b9150610106602084016100c3565b90509250929050565b60805160a051610ba361014b5f395f818161015f0152818161045301526105ab01525f818160ff0152818161035d01526104fd0152610ba35ff3fe608060405234801561000f575f5ffd5b50600436106100a6575f3560e01c80638da5cb5b1161006e5780638da5cb5b1461014157806394718213146101515780639566b6a71461015a578063e1a4521814610181578063f2fde38b1461018a578063f61e172c1461019d575f5ffd5b806301e33667146100aa57806313bcdbea146100bf578063142081ce146100e55780634bb6f06d146100fa578063715018a614610139575b5f5ffd5b6100bd6100b83660046106eb565b6101b0565b005b6100d26100cd366004610729565b61027b565b6040519081526020015b60405180910390f35b6100ed61029a565b6040516100dc9190610740565b6101217f000000000000000000000000000000000000000000000000000000000000000081565b6040516001600160a01b0390911681526020016100dc565b6100bd6102f0565b5f546001600160a01b0316610121565b6100d26101f481565b6101217f000000000000000000000000000000000000000000000000000000000000000081565b6100d261271081565b6100bd610198366004610782565b610303565b6100bd6101ab366004610729565b610345565b6101b861065c565b60405163a9059cbb60e01b81526001600160a01b0383811660048301526024820183905284169063a9059cbb906044016020604051808303815f875af1158015610204573d5f5f3e3d5ffd5b505050506040513d601f19601f8201168201806040525081019061022891906107a4565b50816001600160a01b0316836001600160a01b03167f6337ed398c0e8467698c581374fdce4db14922df487b5a39483079f5f59b60a48360405161026e91815260200190565b60405180910390a3505050565b6001818154811061028a575f80fd5b5f91825260209091200154905081565b606060018054806020026020016040519081016040528092919081815260200182805480156102e657602002820191905f5260205f20905b8154815260200190600101908083116102d2575b5050505050905090565b6102f861065c565b6103015f610688565b565b61030b61065c565b6001600160a01b03811661033957604051631e4fbdf760e01b81525f60048201526024015b60405180910390fd5b61034281610688565b50565b604051631d11e60560e11b8152600481018290525f907f00000000000000000000000000000000000000000000000000000000000000006001600160a01b031690633a23cc0a906024015f60405180830381865afa1580156103a9573d5f5f3e3d5ffd5b505050506040513d5f823e601f3d908101601f191682016040526103d091908101906109e8565b905060018160a0015160048111156103ea576103ea610adf565b1461040857604051630848b95560e21b815260040160405180910390fd5b5f6127106104186101f482610b07565b83604001516104279190610b20565b6104319190610b37565b6040516370a0823160e01b815230600482015290915081906001600160a01b037f000000000000000000000000000000000000000000000000000000000000000016906370a0823190602401602060405180830381865afa158015610498573d5f5f3e3d5ffd5b505050506040513d601f19601f820116820180604052508101906104bc9190610b56565b10156104db5760405163ba2e8a1160e01b815260040160405180910390fd5b6040516323b872dd60e01b8152336004820152306024820152604481018490527f00000000000000000000000000000000000000000000000000000000000000006001600160a01b0316906323b872dd906064015f604051808303815f87803b158015610546575f5ffd5b505af1158015610558573d5f5f3e3d5ffd5b50506001805480820182555f919091527fb10e2d527612073b26eecdfd717e6a320cf44b4afac2b0732d9fcbe2b7fa0cf601859055505060405163a9059cbb60e01b8152336004820152602481018290527f00000000000000000000000000000000000000000000000000000000000000006001600160a01b03169063a9059cbb906044016020604051808303815f875af11580156105f9573d5f5f3e3d5ffd5b505050506040513d601f19601f8201168201806040525081019061061d91906107a4565b50604080830151815190815260208101839052339185917f7cde9e3d2db13469ea49da195431628107a0d41cc612e98c18c59eaf92df1000910161026e565b5f546001600160a01b031633146103015760405163118cdaa760e01b8152336004820152602401610330565b5f80546001600160a01b038381166001600160a01b0319831681178455604051919092169283917f8be0079c531659141344cd1fd0a4f28419497f9722a3daafe3b4186f6b6457e09190a35050565b6001600160a01b0381168114610342575f5ffd5b5f5f5f606084860312156106fd575f5ffd5b8335610708816106d7565b92506020840135610718816106d7565b929592945050506040919091013590565b5f60208284031215610739575f5ffd5b5035919050565b602080825282518282018190525f918401906040840190835b81811015610777578351835260209384019390920191600101610759565b509095945050505050565b5f60208284031215610792575f5ffd5b813561079d816106d7565b9392505050565b5f602082840312156107b4575f5ffd5b8151801515811461079d575f5ffd5b634e487b7160e01b5f52604160045260245ffd5b6040516060810167ffffffffffffffff811182821017156107fa576107fa6107c3565b60405290565b604051610100810167ffffffffffffffff811182821017156107fa576107fa6107c3565b604051601f8201601f1916810167ffffffffffffffff8111828210171561084d5761084d6107c3565b604052919050565b8051610860816106d7565b919050565b805165ffffffffffff81168114610860575f5ffd5b805160058110610860575f5ffd5b5f82601f830112610897575f5ffd5b815167ffffffffffffffff8111156108b1576108b16107c3565b6108c4601f8201601f1916602001610824565b8181528460208386010111156108d8575f5ffd5b8160208501602083015e5f918101602001919091529392505050565b5f82601f830112610903575f5ffd5b815167ffffffffffffffff81111561091d5761091d6107c3565b8060051b61092d60208201610824565b91825260208185018101929081019086841115610948575f5ffd5b6020860192505b838310156109de57825167ffffffffffffffff81111561096d575f5ffd5b86016060818903601f19011215610982575f5ffd5b61098a6107d7565b602082015167ffffffffffffffff8111156109a3575f5ffd5b6109b28a602083860101610888565b82525060408281015160208084019190915260609093015190820152835292830192919091019061094f565b9695505050505050565b5f602082840312156109f8575f5ffd5b815167ffffffffffffffff811115610a0e575f5ffd5b82016101008185031215610a20575f5ffd5b610a28610800565b610a3182610855565b8152610a3f60208301610855565b602082015260408281015190820152610a5a60608301610865565b6060820152610a6b60808301610865565b6080820152610a7c60a0830161087a565b60a082015260c082015167ffffffffffffffff811115610a9a575f5ffd5b610aa686828501610888565b60c08301525060e082015167ffffffffffffffff811115610ac5575f5ffd5b610ad1868285016108f4565b60e083015250949350505050565b634e487b7160e01b5f52602160045260245ffd5b634e487b7160e01b5f52601160045260245ffd5b81810381811115610b1a57610b1a610af3565b92915050565b8082028115828204841417610b1a57610b1a610af3565b5f82610b5157634e487b7160e01b5f52601260045260245ffd5b500490565b5f60208284031215610b66575f5ffd5b505191905056fea2646970667358221220495e1241c0dff06b8a9e389ac29445c5c2d2fa1f3b3cc5a87d9d5f908f5e330564736f6c634300081c0033",
        "linkReferences": {}
    },
    "methodIdentifiers": {
        "BPS_DENOMINATOR()": "e1a45218",
        "DISCOUNT_BPS()": "94718213",
        "fusd()": "9566b6a7",
        "getSoldInvoices()": "142081ce",
        "invoiceNFT()": "4bb6f06d",
        "owner()": "8da5cb5b",
        "renounceOwnership()": "715018a6",
        "sellInvoice(uint256)": "f61e172c",
        "soldInvoices(uint256)": "13bcdbea",
        "transferOwnership(address)": "f2fde38b",
        "withdrawToken(address,address,uint256)": "01e33667"
    },
    "id": 59
}